{
  "contractName": "Airdrop",
  "abi": [
    {
      "anonymous": false,
      "inputs": [
        {
          "indexed": true,
          "name": "tokencontract",
          "type": "address"
        },
        {
          "indexed": false,
          "name": "destinations",
          "type": "address[]"
        },
        {
          "indexed": true,
          "name": "amounts",
          "type": "uint256[]"
        }
      ],
      "name": "AirdropEvent",
      "type": "event"
    },
    {
      "constant": false,
      "inputs": [
        {
          "name": "erc20TokenAddr",
          "type": "address"
        },
        {
          "name": "amounts",
          "type": "uint256[]"
        },
        {
          "name": "addresses",
          "type": "address[]"
        }
      ],
      "name": "doAirDrop",
      "outputs": [],
      "payable": false,
      "stateMutability": "nonpayable",
      "type": "function"
    }
  ],
  "bytecode": "0x608060405234801561001057600080fd5b50610539806100206000396000f300608060405260043610610041576000357c0100000000000000000000000000000000000000000000000000000000900463ffffffff1680633f64c5f614610046575b600080fd5b34801561005257600080fd5b5061010d600480360381019080803573ffffffffffffffffffffffffffffffffffffffff169060200190929190803590602001908201803590602001908080602002602001604051908101604052809392919081815260200183836020028082843782019150505050505091929192908035906020019082018035906020019080806020026020016040519081016040528093929190818152602001838360200280828437820191505050505050919291929050505061010f565b005b60008060008592508273ffffffffffffffffffffffffffffffffffffffff1663dd62ed3e33306040518363ffffffff167c0100000000000000000000000000000000000000000000000000000000028152600401808373ffffffffffffffffffffffffffffffffffffffff1673ffffffffffffffffffffffffffffffffffffffff1681526020018273ffffffffffffffffffffffffffffffffffffffff1673ffffffffffffffffffffffffffffffffffffffff16815260200192505050602060405180830381600087803b1580156101e657600080fd5b505af11580156101fa573d6000803e3d6000fd5b505050506040513d602081101561021057600080fd5b81019080805190602001909291905050509150600090505b835181101561043357600073ffffffffffffffffffffffffffffffffffffffff16848281518110151561025757fe5b9060200190602002015173ffffffffffffffffffffffffffffffffffffffff161415801561029d57506000858281518110151561029057fe5b9060200190602002015114155b156104265784818151811015156102b057fe5b9060200190602002015182101515610425578273ffffffffffffffffffffffffffffffffffffffff166323b872dd3386848151811015156102ed57fe5b90602001906020020151888581518110151561030557fe5b906020019060200201516040518463ffffffff167c0100000000000000000000000000000000000000000000000000000000028152600401808473ffffffffffffffffffffffffffffffffffffffff1673ffffffffffffffffffffffffffffffffffffffff1681526020018373ffffffffffffffffffffffffffffffffffffffff1673ffffffffffffffffffffffffffffffffffffffff1681526020018281526020019350505050602060405180830381600087803b1580156103c757600080fd5b505af11580156103db573d6000803e3d6000fd5b505050506040513d60208110156103f157600080fd5b81019080805190602001909291905050501561042457848181518110151561041557fe5b90602001906020020151820391505b5b5b8080600101915050610228565b8460405180828051906020019060200280838360005b83811015610464578082015181840152602081019050610449565b5050505090500191505060405180910390208673ffffffffffffffffffffffffffffffffffffffff167fd0d9a66f1cab3d98d4a11aed1227a1ebf11dd271e3320c294428c62ca257bc21866040518080602001828103825283818151815260200191508051906020019060200280838360005b838110156104f25780820151818401526020810190506104d7565b505050509050019250505060405180910390a35050505050505600a165627a7a723058202330c1329a3003409e55b66bd623e314b4cf4a196288372e11d5501db2afa7130029",
  "source": "pragma solidity ^0.4.21;\n\n/**\n * @title ERC20 interface\n * @dev see https://eips.ethereum.org/EIPS/eip-20\n */\ninterface IERC20 {\n    function transfer(address to, uint256 value) external returns (bool);\n\n    function approve(address spender, uint256 value) external returns (bool);\n\n    function transferFrom(address from, address to, uint256 value) external returns (bool);\n\n    function totalSupply() external view returns (uint256);\n\n    function balanceOf(address who) external view returns (uint256);\n\n    function allowance(address owner, address spender) external view returns (uint256);\n\n    event Transfer(address indexed from, address indexed to, uint256 value);\n\n    event Approval(address indexed owner, address indexed spender, uint256 value);\n}\n\n/**\n * @title SafeMath\n * @dev Unsigned math operations with safety checks that revert on error.\n */\nlibrary SafeMath {\n    /**\n     * @dev Multiplies two unsigned integers, reverts on overflow.\n     */\n    function mul(uint256 a, uint256 b) internal pure returns (uint256) {\n        // Gas optimization: this is cheaper than requiring 'a' not being zero, but the\n        // benefit is lost if 'b' is also tested.\n        // See: https://github.com/OpenZeppelin/openzeppelin-solidity/pull/522\n        if (a == 0) {\n            return 0;\n        }\n\n        uint256 c = a * b;\n        require(c / a == b);\n\n        return c;\n    }\n\n    /**\n     * @dev Integer division of two unsigned integers truncating the quotient, reverts on division by zero.\n     */\n    function div(uint256 a, uint256 b) internal pure returns (uint256) {\n        // Solidity only automatically asserts when dividing by 0\n        require(b > 0);\n        uint256 c = a / b;\n        // assert(a == b * c + a % b); // There is no case in which this doesn't hold\n\n        return c;\n    }\n\n    /**\n     * @dev Subtracts two unsigned integers, reverts on overflow (i.e. if subtrahend is greater than minuend).\n     */\n    function sub(uint256 a, uint256 b) internal pure returns (uint256) {\n        require(b <= a);\n        uint256 c = a - b;\n\n        return c;\n    }\n\n    /**\n     * @dev Adds two unsigned integers, reverts on overflow.\n     */\n    function add(uint256 a, uint256 b) internal pure returns (uint256) {\n        uint256 c = a + b;\n        require(c >= a);\n\n        return c;\n    }\n\n    /**\n     * @dev Divides two unsigned integers and returns the remainder (unsigned integer modulo),\n     * reverts when dividing by zero.\n     */\n    function mod(uint256 a, uint256 b) internal pure returns (uint256) {\n        require(b != 0);\n        return a % b;\n    }\n}\n\ncontract Airdrop {\n\n    event AirdropEvent(address indexed tokencontract, address[] destinations,uint[] indexed amounts);\n\n    function doAirDrop(address erc20TokenAddr, uint[] amounts, address[] addresses) public {\n        \n        IERC20 erc20Token = IERC20(erc20TokenAddr);\n        uint allowance = erc20Token.allowance(msg.sender, address(this));\n\n        for (uint i = 0; i < addresses.length; i++) {\n          if (addresses[i] != address(0) && amounts[i] != 0) {\n            if (allowance >= amounts[i]) {\n              if (erc20Token.transferFrom(msg.sender, addresses[i], amounts[i])) {\n                allowance -= amounts[i];\n              }\n            }\n          }\n        }\n\n        emit AirdropEvent(erc20TokenAddr, addresses, amounts);\n    }\n}",
  "sourcePath": "/home/trungtt/Work/reference/morphe/lib-app/ico-as-service-advanced/chain-api/contracts/Airdrop.sol",
  "compiler": {
    "name": "solc",
    "version": "0.4.25+commit.59dbf8f1.Emscripten.clang"
  },
  "schemaVersion": "2.0.2",
  "updatedAt": "2019-05-30T13:48:06.954Z"
}